:0200000460108A
:1004000000000220D90710601D071060599E12607D
:100410007D071060850710608D07106000000000E8
:10042000000000000000000000000000010C10604F
:100430004D07106000000000310C106051E31160A6
:1004400029881060318810603988106041881060F8
:100450004988106051881060598810606188106068
:1004600069881060718810607988106081881060D8
:10047000898810609188106099881060A188106048
:10048000A9881060B1881060B9881060C1881060B8
:10049000C9D71060D9D71060E9D71060F9D71060BC
:1004A00009D8106019D8106029D8106039D81060A8
:1004B000C9881060D1881060D9881060E188106008
:1004C000E9881060F1881060F98810600189106077
:1004D00009891060118910601989106021891060E4
:1004E0002989106031891060398910604189106054
:1004F00049891060919C126051891060598910607F
:100500006189106069891060718910607989106053
:1005100081891060898910609189106099891060C3
:10052000A1891060A9891060B1891060B989106033
:10053000C1891060C9891060D1891060D9891060A3
:10054000E1891060E9891060F1891060F989106013
:10055000018A1060098A1060118A1060198A10607F
:10056000218A1060298A1060318A1060398A1060EF
:10057000418A1060498A1060518A1060598A10605F
:10058000497812607178126099781260C1781260AF
:10059000E97812601179126039791260617912601C
:1005A00089791260B1791260618A1060698A10607D
:1005B000759C1260718A1060798A1060818A10605F
:1005C000898A1060918A1060998A1060A18A1060EF
:1005D000A98A1060FD961260B18A1060B98A106015
:1005E000C18A1060C98A1060D18A1060D98A1060EF
:1005F000E18A1060E98A1060F18A1060F98A10605F
:10060000018B1060098B1060118B1060198B1060CA
:10061000218B1060298B1060318B1060398B10603A
:10062000418B1060498B1060518B1060598B1060AA
:10063000618B1060698B1060718B1060798B10601A
:10064000818B1060898B1060918B1060998B10608A
:10065000A18B1060A98B1060B18B1060B98B1060FA
:10066000C18B1060C98B1060D18B1060D98B10606A
:10067000E18B1060E98B1060F18B1060F98B1060DA
:10068000018C1060098C1060118C1060198C106046
:10069000218C1060298C1060318C1060398C1060B6
:1006A000418C1060498C1060518C1060598C106026
:1006B000618C1060698C10603CAE166000000020F8
:1006C000C019000034521660000000000000000055
:1006D0003452166000002020085C00003CAE16601A
:1006E00000000080000000003CAE16600000E081C9
:1006F00000000000C019002060020000000000009F
:1007000000000000405C20208840080000000080BD
:10071000000000000000E0810000000008B5024871
:1007200029F0CCF808BD00BFF746FCC108B5024867
:1007300029F0C4F808BD00BFB61D67EA08B5024835
:1007400029F0BCF808BD00BFA3E2546B08B502480D
:1007500029F0B4F808BD00BFAE7C509708B5024838
:1007600029F0ACF808BD00BF515D51CF08B5024873
:1007700029F0A4F808BD00BF00A66E0F08B529F047
:10078000E5F808BD08B529F003F908BD08B529F05A
:1007900021F908BD08B5024829F090F808BD00BF4E
:1007A0002B024167002393420AD210B450F8044B45
:1007B00041F8044B04339342F8D35DF8044B70477F
:1007C000704700BF002303E0002240F8042B0433ED
:1007D0008B42F9D3704700BF72B6114B83F3088880
:1007E0000CF074FC0F4B07E003F10C049A68596895
:1007F0001868FFF7D7FF23460B4A9342F4D30B4AFE
:10080000934209D21C46596854F8080BFFF7DAFFE7
:100810002346064A9342F5D362B629F065FAFEE70D
:1008200000000220B8061060F40610601C0710607B
:10083000FFFFFFFFFFFFFFFFFFFFFFFFFFFFFFFFC8
:1008400030B490F800F020F007016FF0000C10F0C9
:10085000070491F820F040F048804FF000046FF05A
:100860000700D1E9002391F840F000F1080082FA76
:100870004CF2A4FA8CF283FA4CF3A2FA8CF34BBB41
:10088000D1E9022382FA4CF200F10800A4FA8CF2BA
:1008900083FA4CF3A2FA8CF3E3B9D1E9042382FA88
:1008A0004CF200F10800A4FA8CF283FA4CF3A2FA9D
:1008B0008CF37BB9D1E9062301F1200182FA4CF2D5
:1008C00000F10800A4FA8CF283FA4CF3A2FA8CF33C
:1008D000002BC6D0002A04BF04301A4612BAB2FA5E
:1008E00082F200EBD20030BC7047D1E9002304F063
:1008F0000305C4F100004FEAC50514F0040F91F898
:1009000040F00CFA05F562EA05021CBF63EA050334
:1009100062464FF00004AAE7FFFFFFFFFFFFFFFF63
:1009200002780B78012A28BF9A4240F0D8806DE9FE
:10093000044540EA0104CDE902676FF0000C4FEA7C
:1009400044721AB380EA010414F0070F6BD100F06F
:10095000070420F0070004F0030521F007014FEA27
:10096000C505F0E8042314F0040FF1E804670CFA5D
:1009700005F462EA040266EA04060BD063EA0403A3
:10098000624667EA0407664604E000BFF0E8042315
:10099000F1E8046782FA4CF582EA0604A4FA8CF4C2
:1009A0006CBB83FA4CF583EA0705A5FA8CF595B97B
:1009B00050E9022351E9026782FA4CF582EA060403
:1009C000A4FA8CF483FA4CF583EA0705A5FA8CF5B2
:1009D0002543DBD09CB92DBAB5FA85F424F0070481
:1009E00027FA04F1DDE9026723FA04F303F0FF00BC
:1009F00001F0FF01FDE80445A0EB0100704724BAB7
:100A0000B4FA84F424F0070426FA04F1DDE902675D
:100A100022FA04F202F0FF0001F0FF01FDE80445B4
:100A2000A0EB0100704714F0030F3CD110F0030459
:100A300028D150F8082B51F8083B82FA4CF582EA8D
:100A40000305A5FA8CF55DB950F8042C51F8043C67
:100A500082FA4CF582EA0305A5FA8CF5002DE8D060
:100A60002DBAB5FA85F424F0070423FA04F122FA2A
:100A700004F202F0FF0001F0FF01FDE80445A0EBE5
:100A8000010070474FEAC40420F0030050F8082B1F
:100A900021F0030151F8083B0CFA04F462EA040265
:100AA00063EA0403C9E710F003041DD0A1EB0401BD
:100AB00020F00300E40750F8042B06D012D28B7804
:100AC0005FFAA2F4E41A06D12BB1CB785FFAB2F444
:100AD000E41A00D133B920465DF8104B7047A2EB01
:100AE0000300704701F1040150F8042BCC0721F0FA
:100AF000030151F8043B48D824D222F07F4482FA03
:100B00004CF594EA1325A5FA8CF50AD165B951F88C
:100B1000043B84EA0204B4EB036F0ED150F8042BBB
:100B2000EBE74FEA132355E035F07F454DD10878C8
:100B3000FDE80445C0F1000070474FEA126203F07F
:100B4000FF0347E002EA1C4482FA4CF594EA13459D
:100B5000A5FA8CF50AD165B951F8043B84EA020480
:100B6000B4EB034F0CD150F8042BEBE74FEA1343DF
:100B700030E015EA1C4528D10B884FEA124229E0E3
:100B80004FEA124203EA1C4324E002F0FF0482FA17
:100B90004CF594EA1365A5FA8CF50AD165B951F8BC
:100BA000043B84EA0204B4EB032F09D150F8042B70
:100BB000EBE74FEA13630DE015F0FF0F05D10B686B
:100BC0004FEA122223F07F4304E04FF00000FDE8DB
:100BD0000445704712BA1BBA82FA4CF482EA030445
:100BE000A4FA8CF5B5FA85F402FA04F203FA04F3D8
:100BF0004FEA1260FDE80445A0EB1360704700BFA8
:100C0000074B19680868B0E8F04F80F30988BFF314
:100C10006F8F4FF0000080F311887047AFF30080B2
:100C200050CD2720FFFFFFFFFFFFFFFFFFFFFFFF6C
:100C3000EFF30980BFF36F8F154B1A681EF0100F8A
:100C400008BF20ED108A20E9F04F10602DE909005F
:100C50004FF0200080F31188BFF34F8FBFF36F8FE9
:100C60001FF072FA4FF0000080F3118809BC196878
:100C70000868B0E8F04F1EF0100F08BFB0EC108A03
:100C800080F30988BFF36F8F704700BFAFF3008018
:100C900050CD2720FFFFFFFFFFFFFFFFFFFFFFFFFC
:100CA00001F0FF01102A2BDB10F0070F08D010F81D
:100CB000013B013A8B422DD010F0070F42B3F6D121
:100CC000F0B441EA012141EA014122F007047FF03A
:100CD00000070023F0E80256083C85EA010586EA91
:100CE000010685FA47F5A3FA87F586FA47F6A5FACD
:100CF00087F68EB9EED1F0BC01F0FF0102F00702D9
:100D000032B110F8013B013A83EA010313B1F8D183
:100D10000020704701387047002D06BF3546033864
:100D2000073815F0010F07D1013015F4807F02BF9D
:100D3000013015F4C03F0130F0BC0138704700BFEE
:100D400010B5002945D0002A4AD053684FF40074EA
:100D5000294AC0F800449124B2FBF3F303F07F0367
:100D6000C0F81434C0F80C24C0F800448B7E0BB1DA
:100D70008B68CB638368214A23F0806390429FEDA8
:100D80001C7B81ED107B836017D01D4B984201D0F6
:100D900009F03CFE1B4B1C4A9A601C4A4FF08073C2
:100DA00013611B4904221B4C8C60184941F8223006
:100DB000194B82681343836010BD124B124A1A60AC
:100DC000124A4FF48023D36011490322114C0C6066
:100DD000EBE7124B40F6B841114A124805F0ECFD22
:100DE000114B40F6B9410E4A0E4805F0E5FD00BF33
:100DF000000000000000000000CA9A3B00802D4067
:100E000000402D40D0CD23209DA9106000E100E0DE
:100E1000F4CD2320C5B810600080010C6823156054
:100E200040AB156084231560D4271560FFFFFFFFDA
:100E30002DE9F04F87B00191002900F0E28183464F
:100E4000002800F0E581BC4B1746984210D003F50E
:100E50008043984200F0CF8103F58043984200F030
:100E6000CC8103F58043984200F0C9810BF056F91C
:100E70000321B24A02F16C0353E8003F0B4302F135
:100E80006C0040E80034002CF4D1DBF82430012061
:100E9000019943F00103CBF824300D7EDBF82420C8
:100EA00005F10806497EA64BB040B14022EA000297
:100EB00001980A43017FCBF82420DBF8242013405B
:100EC000C27E920643EA410302F080621343827EAF
:100ED000120602F040721343CBF82430DBF82430C2
:100EE000DA0744D5DBF81030DB0740D40068A446AD
:100EF000DFF85C924FF0FF084FF0070E4FF0FF361F
:100F000019F801AF00224FEA4A01B7FBF1F398420A
:100F100010D3C31AB3420DD2FF2A02F1010E0FD033
:100F20005144CBB11E4690467246E646B7FBF1F3FC
:100F30009842EED20132B2F5807F04D05144E4E70A
:100F40001E469046E6460CF1010CBCF1080F01D09C
:100F5000002ED5D14246F446DBF840304FEACC6152
:100F600062F3070301F06051CBF8403000E0214606
:100F7000019800262D064368CBF8586005F04075AF
:100F80005A1E437A007AC2F30B029B0742EAC072F0
:100F900003F0804301981A43837AD0F80CA0DB0554
:100FA00003F400031A432A430A43CBF86020DBF81A
:100FB0001030644A43F00103CBF81030DBF86030A6
:100FC000C3F3C263D35CB7FBF3F257A1D1E90001CD
:100FD0003346029229F020FA504571F1000180F069
:100FE000FF804FF0FF39FF230394B0464C46CDF805
:100FF00010B0554D9B46DDF80890059700E0CCB148
:101000004A4600232846414629F006FA504537460D
:1010100006F1010671F1000105D3A0EB0A00A04220
:1010200001D20446BB46484BED1848F10008B6F51E
:10103000807FE4D15B46059FDDE9034BDBF8402070
:1010400063F31742CBF84020DBF860303D4AC3F32E
:10105000C2630199D35CD1F810A0B7FBF3F232A1BF
:10106000D1E900010023029229F0D6F9504571F12F
:10107000000180F0AE804FF0FF390026FF2303947B
:10108000CDF810B04C46304DB0469B46DDF8089088
:10109000059700E0CCB14A4600232846414629F096
:1010A000BBF95045374606F1010671F1000105D341
:1010B000A0EB0A00A04201D20446BB46224BED1829
:1010C00048F10008B6F5807FE4D15B46059FDDE975
:1010D000034BDBF8402022F07F4242EA0363CBF867
:1010E0004030019B174AD3F81490DBF86030C3F30B
:1010F000C26312F803A00023B7FBFAFA0CA1D1E9EE
:101100000001524629F088F9484571F1000159D291
:10111000FF230E4D00264FF0FF380B4FCDE9013B6A
:101120001BE000BFAFF3008000CA9A3B0000000044
:1011300000943577000000000040394000C00F40A7
:10114000F5FFFFF850AE156000CA9A3B0094357762
:101150004FAE1560B8F1000F19D052460023284653
:10116000314629F059F94845A34604F1010471F1CB
:10117000000106D3A0EB0900404502D28046CDF81D
:1011800004B0ED1946F10006B4F5807FE2D1DDE947
:10119000013BDBF8402063F30F22CBF840201D4BCE
:1011A0009B4524D003F580439B4522D003F5804323
:1011B0009B450CBF03230423174A0021D15407B0D9
:1011C000BDE8F08FDBF8403023F47F43CBF84030AC
:1011D000E5E7DBF8403023F07F43CBF8403080E791
:1011E000DBF8403023F47F03CBF840302CE70123B9
:1011F000E2E70223E0E70C213BE6302139E6C0219B
:1012000037E6064B40F20511054A064805F0D4FBC7
:101210000AF076FF004039401CCE2320D02A15600A
:1012200028AE1560502A1560D0B11F4B5A68904205
:1012300028D0DA6890421CD05A69904224D0DA69EA
:10124000904223D05A6A904222D0DA6A904221D04A
:101250005A6B904220D0DA6B90421FD01CF080BFB6
:101260004FF0200383F31188BFF36F8FBFF34F8FCD
:10127000FEE7012203EBC2039FED097B83ED007BB8
:101280001CF06EBF0022F5E70222F3E70322F1E72C
:101290000422EFE70522EDE70622EBE70722E9E764
:1012A0000000000000000000B0E82020FFFFFFFF6A
:1012B000002800F011812DE9F0430C462DED068B3E
:1012C0008BB000293BD0037B0546202B25DCB3B334
:1012D000013B1F2B33D8DFE813F0E700DC003200BE
:1012E000D00032003200320088003200320032007A
:1012F0003200320032003200800032003200320010
:10130000320032003200320032003200320032004D
:1013100032003200320032003800402B00F0DE8014
:10132000802B0CD1006950B1FFF78AFA02462046A3
:10133000541C214624F022FC002840F06481002047
:101340000BB0BDEC068BBDE8F08301212046AD68F3
:1013500024F014FC0028F2D05B230370D4E90223AC
:1013600001320133C4E90223002D00F0A8802C26AD
:101370004FF02008002707E04370A3682D684B4416
:10138000A360002D00F09B8021462846FFF790FFC8
:101390000028D4D0236833B1A0681844FFF750FA6E
:1013A000A3680344A3602B682046002B00F08780CD
:1013B0006369002B0BBF022103214FF001094FF09D
:1013C000020924F0DBFB0028B9D006706369002B0A
:1013D000D2D080F801808770CFE700690BB0BDECF8
:1013E000068BBDE8F04324F00DBC90ED068B002386
:1013F00000200021B4EE488BADF82430CDE9000187
:10140000F1EE10FACDE90333CDE90533CDE9073329
:1014100009D6B0EEC87B9FEDB26BB4EE467BF1EE21
:1014200010FA40F3F580B04903A829F085FF05467E
:10143000192D84D8691C204624F0A0FB0246002800
:101440003FF47DAF95B16E1E052E05D90DF10D034C
:10145000C31A022B00F2F38003AB1644511E13F89B
:10146000010B01F8010FB142F9D12A4400230120F8
:101470001370A3682B44A36062E70521204624F083
:101480007DFB00283FF45BAF97492CF019FB01204E
:1014900056E70521204624F071FB00283FF44FAFAA
:1014A00092492CF00DFBF2E70621204624F066FB62
:1014B00000283FF444AF8E492CF002FBE7E70221FD
:1014C000204624F05BFB00283FF439AF5D23038006
:1014D000E368013BE360DAE7002070474B690846A8
:1014E000AD68002B0BBF022103210126022624F048
:1014F00045FB00283FF423AF7B230370E368626958
:101500000133E3601346002A40F09280A168314421
:10151000A160002D00F0F78009263A274FF02C0833
:10152000002B5CD12146286A24F06CFB00283FF494
:1015300006AF236833B1A0681844FFF781F9A368A8
:101540000344A36063692046002B0CBF4FF00109E0
:101550004FF00209494624F011FB00283FF4EFAE9A
:101560000770636903B14670A368214628464B445F
:10157000A360FFF79DFE00283FF4E1AE236833B17E
:10158000A0681844FFF75CF9A3680344A3602B68C4
:101590002046B3F10009636918BF4FF00109002B21
:1015A00018BF09F1010909F1010124F0E7FA002847
:1015B0003FF4C5AE2B680BB100F8018B6369002BBB
:1015C0003BD00A23037000234370A3682D684B446B
:1015D000A360002D00F096806369002BA2D0E16823
:1015E000204624F0CBFA00283FF4A9AEE26832B1DD
:1015F0000023013300F8016BE2689342F9D3A3683A
:101600001344A3608EE7224629692DF035FA3EE7A0
:101610006A6907EE902AB8EEE77BB4EE478BF1EEED
:1016200010FA44D1334903A829F086FE0546FFE6A7
:101630000A2343706269134668E70370C5E7AB0885
:101640000399012B016000F0A2800499022B4160F4
:101650000DD00599032B816009D00699042BC16038
:1016600005D00799062B016101D1089B4361A907A9
:1016700025F003033FF4F9AE03F12801694411F8A2
:101680001C1CD154591C8D427FF6EFAE01F128008D
:10169000023368449D4210F81C0C50547FF6E5AEAE
:1016A00003F12801694411F81C1CD154DDE653EC08
:1016B000182B114903A829F03FFE6A460F49054639
:1016C00003A829F059FE01283CD00D4903A853EC8A
:1016D000182B29F031FE0546AAE600BFAFF30080C3
:1016E000FFFFFFFFFFFFEF7FC0A01560C8A01560E0
:1016F00084201560D0A01560D4A01560DCA0156012
:10170000E0A015606269DAB1E1680131204624F099
:1017100035FA00283FF413AE63695BB1E368012B2F
:1017200008D00022092100F8011B0132E368013BC7
:101730009A42F8D37D230380E368013BE360A6E689
:101740000221E3E79DED00ABB0EE4A0B2EF05CFE0C
:10175000B0EE409BB0EE480B2EF056FEB4EEC09BB0
:10176000F1EE10FA15DDB0EE4A0B2EF04DFEB0EEA4
:10177000409B3AEE480B2EF047FE9FED097B29EE89
:10178000079BB4EEC90BF1EE10FA9ED850E6042385
:1017900072E7B0EE480B2EF037FEB0EE409BE8E764
:1017A000000000000000B03C002951D02DE9F043BA
:1017B0000C46096893B0F1B10546D4E90123181D20
:1017C00090421CD9581D824239D2934213D22068CC
:1017D000C15C00EB030E222900F07E81A1F1300CE8
:1017E000BCF1090F42D92D2940D05B2900F07B8143
:1017F0007B2900F09080002013B0BDE8F083C8186A
:101800000422B14929F01EFD88B1D4E90123591DF4
:10181000914213D9191D9142D7D820680422AB49AF
:10182000184429F00FFDD0B1D4E90123CDE70422FB
:10183000A3681344EA600120A360DDE72168C818AB
:101840000522A34929F0FEFC20B1D4E90123E1E7F8
:1018500000207047A36801220533EA60EBE7A36824
:10186000022101220433E9606A61E4E70021019169
:101870000028C0D0D21A02AE013B0127DFF8548203
:101880000344304613F801EFAEF12B0CBEF1450FC7
:101890005FFA8CFC00F24981BEF12A0F07FA0CFCBA
:1018A0000CD91CEA080F02D1BEF12E0F06D101316E
:1018B00000F801EB3F2901D09142E3D101F1480347
:1018C00030460DEB0301002301F8403C01A928F04C
:1018D00039FF019BB3428ED09FED777BB4EEC70BEF
:1018E000F1EE10FA80F226819FED757BB4EEC70B06
:1018F000F1EE10FA40F22181FDEEC07B17EE901A56
:10190000A2689B1B6961082113440120E96085EDF1
:10191000060BA36070E7E168B1F57A7FBFF46BAFA7
:101920004E1CE6609EF800607B2E7FF464AF0133AE
:101930009342A36080F0F68020B90BE0013393421C
:10194000A36003D21EF8016F202EF7D9934200F056
:101950007981A368934280F0E580C25C7D2A00F023
:1019600077814FF00008013B46464746A360236954
:101970002820C14698478046002800F05C81282234
:1019800000212BF0EDFF002E00F0DA80C9F8008076
:10199000C8F80490D4E901014B1C834280F0D9803F
:1019A0002268A3606AB10A4403E001339842A3604D
:1019B00003D912F8011F2029F7D9984201D1013823
:1019C000A0602146404624F069FA002800F0C1805A
:1019D000D4F800C0D4E90123BCF1000F12D0934227
:1019E00080F0B080591E614404E001339342A3604B
:1019F00000F0188111F8010F2028F6D9934200F069
:101A00001181A368D8F810109342C8F81070C8F874
:101A1000201080F09E801CF803000CEB03013A2894
:101A200040F097800133A360BCF1000F0ED09342C9
:101A300004D30BE001339342A36003D211F8010FEA
:101A40002028F7D9934201D1013BA36021464046AB
:101A5000FFF7AAFE00287CD0D4F800C0D4E9010327
:101A6000BCF1000F10D0834273D25A1E624404E0CE
:101A700001338342A36000F0E28012F8011F2029A5
:101A8000F6D9834200F0DB80834262D21CF8032047
:101A90002C2A3FF46CAF83425BD27D2A59D1E36894
:101AA000013BE360C6F80480A3684022AE600133C6
:101AB000EA60C0E6AFF300800000C0FFFFFFDF4137
:101AC000000000000000E0C1C0A01560C8A01560C3
:101AD00084201560E57F00042146284613B0BDE848
:101AE000F04324F0DBB9E168B1F57A7FBFF483AE4F
:101AF0004E1CE6609EF800605B2E7FF47CAE0133E6
:101B0000A36068B1934204D30AE001339342A36017
:101B100003D21EF8016F202EF7D993421DD0A3687F
:101B20009A421CD8013BA36065E6BEF1650F7FF4C5
:101B3000C5AEBCE66FF00041E2E64FF00041DFE6E3
:101B4000464627E7D8F810200023C8F82020C8F818
:101B50001030304624F0B0FB4DE6013BA360C25C80
:101B60005D2A72D00027013B3E46A36023692820EE
:101B7000B8469847074600285DD0282200212BF060
:101B8000EFFE002E49D0C8F80070C7F80480A168A5
:101B900022684B1CA36082B1606883420DD20A4464
:101BA00003E001339842A36003D912F8011F2029F2
:101BB000F7D9984201D10138A06021463846FFF795
:101BC000F3FD0028C5D0D4F800C0D4E90103BCF16E
:101BD000000F0ED08342BCD25A1E624403E0013390
:101BE0008342A3601BD012F8011F2029F7D983423A
:101BF00015D08342ADD21CF803202C2AB6D08342E4
:101C0000A7D25D2AA5D1E368013BE3607760A368B2
:101C10002022AE600133EA600DE63E46B7E7431E80
:101C2000A360E8E7D8F81010531EA360C8F820108E
:101C3000C8F81070EFE6002E3FF4DDAD89E7431ED3
:101C4000A36023E7013BA36087E60026E160DEE7AF
:101C50000026E16028E700BF2DE9F843384F05462C
:101C600028200E463B682DED028BB0EE408B984746
:101C7000044600283BD0282200212BF071FE9FED66
:101C80002C7BB4EEC78BF1EE10FA39DB6FF000431A
:101C90006361082384ED068BE36046B33DB3A54240
:101CA00025D03046FEF7CCFD00F101093B684846DF
:101CB00098478046D8B131464A462CF0DDFEE368AD
:101CC00023F400769B0503D4206A08B17B6898470B
:101CD000AB68C4F82080E6600BB35A685AB1146050
:101CE000204662605C60BDEC028BBDE8F883204654
:101CF000002424F0E1FA2046BDEC028BBDE8F88315
:101D00009FED0D7BB4EEC78BF1EE10FA02D84FF0C9
:101D10000043BDE7FDEEC87B17EE903AB8E7BDEC97
:101D2000028B2046AC60C4E90034BDE8F88300BFF4
:101D30000000C0FFFFFFDF41000000000000E0C125
:101D4000F8160020FFFFFFFF9FED117B124B0246AC
:101D500012491348096810B500248AB00360184678
:101D600008948DED067B05F0E1F80E4825F0FEFCA9
:101D70000AAB13E90F008DE80F0022460A490B4811
:101D8000CDE9044427F0F4FE0AB010BDAFF30080A3
:101D90000100000000000000A48F282038C5232087
:101DA000A08F2820E88A28204D751260E8C42320DF
:101DB00008B51CF03BFAC0F5C83307EE103A9FEDAA
:101DC000065BB8EE477B9FED066B27EE057B87EE43
:101DD000060BB7EEC00B08BD000000000000594024
:101DE000000000000000F9409FED0B6B07EE100AA9
:101DF0009FED0B5BB7EEC77A27EE066BBCEEC66BAA
:101E0000B8EE464BA4EE457BFCEEC77B16EE101AEF
:101E100017EE900A704700BF000000000000F03D80
:101E2000000000000000F0419FED0B6B41EC170B30
:101E30009FED0B5B27EE066BBCEEC66BB8EE464B18
:101E4000A4EE457BFCEEC77B16EE101A17EE900A47
:101E5000704700BFAFF30080000000000000F03DBD
:101E6000000000000000F0412DE9F04F2DED0A8B3D
:101E700097B0894600219246129100220021CDE9B7
:101E800004128046494611910F4611F8012B2D2A64
:101E90005ED801A050F822F073201060511F10602E
:101EA000511F1060511F1060511F1060511F1060B2
:101EB000511F1060511F1060511F1060871E10606D
:101EC000871E1060871E1060871E1060871E1060BE
:101ED000511F1060511F1060511F1060511F106082
:101EE000511F1060511F1060511F1060511F106072
:101EF000511F1060511F1060511F1060511F106062
:101F0000511F1060511F1060511F1060511F106051
:101F1000511F1060511F1060871E1060511F10600C
:101F2000511F1060511F1060511F1060511F106031
:101F3000511F1060511F1060511F1060511F106021
:101F4000511F1060E1251060511F1060F5251060D1
:101F500000210791302A00F09A80002308932F2A4D
:101F6000144640F2DD84002338461E461D4613E029
:101F70000130082D1190C8BF03EB83030478C6BF5E
:101F800002EB4302A2F13003A1F130062F2C05F140
:101F90000105224640F3CC8006EB8601392C02EB8A
:101FA0004101E5DDB6490993012229F04BF9099B6E
:101FB00000287DD111990A46013111915478002DE4
:101FC00040F05185302C40F0FE840A461046013224
:101FD00011921478302CF9D0C1F101010844A4F118
:101FE0003102082A39D8119F411CA4F130020A910C
:101FF0000125BE464FF0000C06EB860602EB4606B6
:1020000000200EF1010211929EF80140A4F130016E
:10201000092900F2BD82DDF844E001300A460029BA
:10202000EFD00128D8BF05F1010B40F3508400EB3D
:10203000050B0BF1FF34099703E07E00AC4200F082
:102040004584082D06EB860705F10105F5DD102D09
:10205000DCBF03EB83035B00F0E7652C40F0CD822F
:1020600000220121CDE909129446089A024340F06A
:102070009D829FED818BBAF1000F01D0CAF80090CC
:10208000B0EE480B17B0BDEC0A8BBDE8F08F7A7844
:1020900002F0DF02582A00F0DC83013711973A780A
:1020A000302AFAD0002A00F06B820123089356E709
:1020B0000020CDE90900AC46652C48D0452C46D01F
:1020C0004FF0000B002D40F08F80089B034340F041
:1020D0005782099B002BCCD1692C00F0498400F376
:1020E0004284492C00F044844E2CC2D1654911A889
:1020F00028F0A6FF0028BCD0119B1B78282B00F0ED
:102100005185614803F0FCF9B0EE408BBAF1000F45
:1021100002D0119BCAF80030079B002BB0D0B1EE63
:10212000488BB0EE480B17B0BDEC0A8BBDE8F08FC2
:1021300053490993012229F085F8099B0028B7D15A
:10214000119A0A90511C11915478AC465EE7002D0B
:102150008BD0DDF8449009F10102119299F8014009
:102160002B2C00F020822D2C00F0158200220B92E7
:10217000A4F1300BBBF1090F00F20582302C119A4B
:102180000AD1013211921478302CFAD0A4F1310125
:10219000082995D8A4F1300B511C119154782F2C9B
:1021A00040F3CF838E460C9208E0013111919EF8E6
:1021B00001402F2CA2F1300B06DD8E460BEB8B027B
:1021C000392C04EB4202F0DD0C9A891A082940F3FD
:1021D000B88344F61F6B0B9A002A3FF473AFCBF120
:1021E000000B002D3FF471AF07EE906A0A9AB8EE2B
:1021F000677BABEB0202BCF1000F08BFAC46102DB1
:1022000009922A46A8BF1022092D8DED047B0EDD10
:1022100006EE903A1D4B03EBC20313ED125B0F2D3C
:10222000B8EE666BA7EE056B8DED046B30DC099B99
:10223000002B00F0E882099B40F33782162B40F315
:1022400086830999C5F125038B4221DB0F4BC5F12C
:102250000F054A1B03EBC50503EBC20395ED008B8D
:1022600093ED007B9DED046B28EE068B28EE078B2B
:102270004CE700BFAFF3008000000000000000004A
:10228000FC8B1560BCA615603874156040041560A1
:10229000AB1A099A1344002B40F3B58113F00F01D8
:1022A0000AD0C74A02EBC1029DED046B92ED007BA0
:1022B00027EE067B8DED047B33F00F0240D0B2F5A4
:1022C0009A7F00F36B83102A4FEA221340F3BB84FA
:1022D000BC4C9DED047B00202246014613F0010F0B
:1022E00001F101014FEA630304D092ED006B01207C
:1022F00027EE067B012B02F10802EFD108B18DED2C
:10230000047B059BA3F15473059304EBC1049DED7D
:10231000046B94ED007BAC4B27EE067B17EE902A06
:10232000AA4913408B428DED047B00F23783A84904
:102330008B4240F2E083A74C4FF0FF33CDE90434E9
:102340000023089300962B466246394640462BF000
:10235000A9FC8146002800F021830A9BCDF83CA00F
:10236000A3EB0B0B099B002BB4BF5A4600224FF086
:10237000000B23EAE3739FED8E9B0A920B935C465E
:10238000BFE0991A1F29A5EB010500F30182012284
:1023900002FA01F30C9300230D932F44089B55443C
:1023A000AA4552461F44A8BF2A46BA42A8BF3A4689
:1023B000002A03DDAD1ABF1AAAEB020A0A9B002B02
:1023C00000F38C81002D00F3A281099B002B00F308
:1023D000D581002F00F3C581BAF1000F08DD214639
:1023E000524640462BF048FE0446002800F0C281C9
:1023F0001299324640462BF0D9FE8346002800F061
:10240000B9810023C568C36021462BF0ADFE0028CA
:10241000C0F29483059F00F02F83214658462CF08C
:1024200071F8B0EE007BB4EEC70BF1EE10FA00F2DB
:102430004C81002D40F0BC81049B002B40F0338286
:10244000C7F31303002B40F0E181B7EE007BB4EE3D
:10245000C70BF1EE10FA00F10A83B6EE00BB20EED6
:102460000BBBB1EE4BAB5848DFF870C107EA000177
:10247000614553EC1A2B00F0A0810898E0B1B1F14E
:10248000D46F19D8B4EEC9BBF1EE10FA11D8BCEE76
:10249000CBBB1BEE103A012B38BF01230BEE103AD9
:1024A000B8EE4BBB002D40F08B82B1EE4B7B53EC72
:1024B000172B03F1D660431AB0EE480B43EC1A2BEE
:1024C0000C912BF02FFFAAEE008B8DED048B18EEF4
:1024D000907A0C99089B23B93B4B3B40994200F002
:1024E0009A81129940462BF083FB314640462BF0EF
:1024F0007FFB214640462BF07BFB594640462BF0A4
:1025000077FBD9F8041040462BF04CFB0646002818
:1025100000F03081D9F810200232920009F10C014C
:102520000C302CF0A9FA9DED048B14AA13A9404697
:10253000B0EE480B2BF086FF1290002800F0F080E0
:10254000012140462BF05AFC0446002800F012817D
:10255000139A002AC0F200810A9B0B9F02EB030A28
:10256000089B149DD21A2A441B4B013A9A42C5F18A
:102570003605FFF606AF01230022CDE90C320CE749
:102580009FED0D8BC2E5CDF844904FF0000B99E51F
:102590000122099290E501220B9209F102021192A7
:1025A00099F80240E4E500220B92F6E70025D0E519
:1025B0000000C0FFFFFFDF4100000000000000003E
:1025C00040041560180415600000F07F0000A07C36
:1025D0000000907CFFFFEF7F02FCFFFF0000E07F28
:1025E00000220792791C11917A78002A3FF441ADBC
:1025F0000F46AFE401220792F4E7452C3FF430ADDB
:102600000123099361E53FF49BAE5B4213F00F0198
:102610000AD0BD4A02EBC1029DED046B92ED007B36
:1026200086EE077B8DED047B1B113FF489AE1F2BDB
:1026300035DC13F0100218BF6A229DED047B08926E
:10264000B24A0021D80704D592ED006B012127EE94
:10265000067B5B1002F10802F4D109B18DED047B19
:10266000089BA3B1DDE90401C1F30A52C2F16B0377
:10267000002B0ADD1F2B40F3F0820020342B049046
:1026800040F32B834FF05C7305936A2308939DED11
:10269000047BB5EE407BF1EE10FA7FF453AE2223BB
:1026A0009FED8F8BC8F8003030E51633FFF6F0ADA4
:1026B0000A9BA3EB0B0B944B03EBCB0393ED007B3B
:1026C0009DED046B86EE078B20E5B6EE00BB20EE99
:1026D0000BBB002D69D1B1EE4BABC4E621461A46C7
:1026E00040462BF06FFC0446002843D00146129A66
:1026F00040462BF0B1FB00283CD00E90129940468A
:102700002BF076FA0E9A1292002D7FF75EAE129998
:102710002A4640462BF0B0FC129000287FF455AEBC
:10272000DDF83CA09FED708B2223C8F800300146F5
:1027300040462BF05DFA314640462BF059FA2146CF
:1027400040462BF055FA494640462BF051FA59467F
:1027500040462BF04DFAD9E40B9BDDF828A09F1AD8
:10276000FEE631463A4640462BF086FC06460028F7
:102770007FF432AEDDF83CA01298D3E731460B9AD5
:1027800040462BF01FFC064600287FF422AEF1E7FE
:10279000C2F17F4202F57F0202F57B420121E23263
:1027A00001FA02F3CDE90C13F7E5B0EE4BAB5AE6B4
:1027B000B7EE00ABB0EE4ABB55E6A7F154730593F4
:1027C0009DED04CBB0EE4C0B0C912BF0ABFD5048C3
:1027D000A0EE0ACB1CEE907A4E4B0C9938409842F2
:1027E0008DED04CB6ED918EE902A03F154739A4202
:1027F00003D118EE103A0133BCD0474B4FF0FF32F3
:10280000CDE904236DE69DED048B7FE4BFEE00ABC4
:10281000B7EE00BB27E651EC1B0B27F015FE27F0A7
:10282000BFFC049B41EC170B1D43C7F313073D434B
:102830003BEE477B27D19FED2E6BB4EEC67BF1EECE
:1028400010FA7FF54EAE9DED048BDDF83CA012989A
:102850006DE70293079B019312AB00932F4A13ABD2
:1028600011A9404628F07CF810F00F0504463FF40B
:1028700087AE062D40F0AA80013700239FED188B0C
:102880001197079342E49FED1C6BB4EEC67BF1EE0B
:1028900010FAD8D49FED1A6BB4EEC67BF1EE10FAA5
:1028A0007FF71FAECFE7049B012BAFD1002FADD137
:1028B000DDF83CA0129B184622239FED098BC8F837
:1028C000003034E707F15477059703E6099F0A9C27
:1028D000082D04440A9468DC5D46FFF78DBB00BFF9
:1028E0000000000000000000000000000000F07F79
:1028F0009535A094FFFFCF3F9535A094FFFFDF3FB4
:1029000035E5AF350000E03F40041560F003156089
:102910000000F07FFFFF9F7CFFFFEF7F80E31560EB
:10292000AF490122384628F08DFC002800F0928043
:1029300000231E4618460A931D4609939C46FFF73E
:10294000BDBB44F61F629345A8BF934643E4A54B25
:10295000099A03EBC20393ED008B9DED047B28EEF7
:10296000078BFFF7D3BB6E2C3FF4C0ABFFF781BBE7
:102970009D4911A828F064FB00283FF47AAB119B15
:102980009A49013B11A8119328F05AFB10B9119BE9
:10299000013311939FED8E8BFFF7B8BB22239FED80
:1029A0008C8BC8F80030FFF7B1BBBBF1100FDCBF58
:1029B00003EB830301EB43035D460020FFF721BBDC
:1029C000B0EE4B7B73E50020FFF709BB129A3AB1DA
:1029D000352114A82BF0C8FD129940462BF008F9B8
:1029E000013D139B042D00F2AA81DFE805F0032DC1
:1029F0002A1F0300149A049203F23342159B23F416
:102A0000801343EA02530593E40502D543F00043E3
:102A10000593774A1A409DED048B002A7FF476AB2C
:102A200028F088FF22230360FFF770BB4FF0FF32CE
:102A30006FF00043CDE90423E3057FF5E4AE059B89
:102A4000E4E76B4B0593F7E7DDE91412159BCDE93D
:102A50000412D9E711990A460131119154780646BA
:102A60000346FFF7AFBAAC460A90FFF7CFBABEEE07
:102A700000ABB6EE00BBF6E4DDE90CC3DDF83CA02C
:102A80005C49C7F31302002D39D08A4200F0ED8073
:102A90005BBB049B1CEA030F29D0B0EE480B2BF064
:102AA00041FC089B002B00F03181C7F30A53C3F1AE
:102AB0006B03002B40F32E81190501F17F53002297
:102AC00003F5401343EC172BA0EE078B9FED427BE1
:102AD000474B28EE078B18EE902A1340002B7FF40B
:102AE000B6AE2223C8F80030B1E63B42D5D1089BF0
:102AF000002BEBD1ABE602F15473059320E4002ADE
:102B00007CD1DDE904010246002840F0A080089B4A
:102B1000002B40F0EA80059B23F000473F0D3F0566
:102B2000A7F580176FEA17536FEA035305934FF029
:102B3000FF3304939DED048B1298F8E5DDE9041250
:102B40000D43DDF83CA0D2D1C2F31303002BCED14C
:102B500022F000473F0D3F05B7F1D66F3D46C6D97D
:102B6000DBF814301BB9DBF81030012BBFDD594600
:102B7000012240462BF080FA214683462BF0F4FADE
:102B80000028B4DD089B002BCAD0A5F580156FEA9C
:102B900015536FEA035305934FF0FF3304939DEDF4
:102BA000048B93E7144911A814AA28F065FA0528A4
:102BB0007FF4A7AA159B43F0FF4343F4E00305937A
:102BC000149B04939DED048BFFF7A0BAAFF3008034
:102BD000000000000000F07F0000000000005039FD
:102BE000FC8B156040041560B0A61560B4A6156096
:102BF0000000F07FFFFF0F006CE31560002B4DD14C
:102C0000049B1CEA030F3FF472AFB0EE480B2BF0AD
:102C100089FB089B002B48D0C7F30A53C3F16B0311
:102C2000002B7ADD1B0503F17F51002001F54011D7
:102C300041EC170BA0EE478BB5EE408BF1EE10FA8E
:102C40007FF444AF36E6444C0021FFF75ABB2BBB60
:102C500012EA0C0F3FF44BAFD7E74FF0FF3202FA06
:102C600003F3049A1A4004920FE5089A0499CAB132
:102C70003A4A3A40B2F1D46F14D8120DC2F16B0245
:102C80004FF0FF3000FA02F2914219D0002B7FF48E
:102C90002CAF11EA0C0F3FF42AAFFEE63B423FF4A3
:102CA00026AFB2E74FF0FF32EEE7129B38EE408BD3
:102CB000B5EE408BF1EE10FA18467FF438ADFAE528
:102CC000274B9F4232D0254B3B4003F580130593A1
:102CD000002304939DED048B09E7C2F14B024FF0F2
:102CE000FF3393400B400593CFE41C4D3D40B5F1BD
:102CF000D66F3FF64AAFB5F15C7F3FF6E7AE2223D1
:102D00009FED118B1298C8F8003010E5129838EE3C
:102D1000008B0CE538EE008BD8E638EE408BB5EE34
:102D2000408BF1EE10FA7FF4D1AEC3E50131CAD188
:102D300022239FED078B1298C8F80030F7E4002398
:102D400062E600BFAFF3008000000000000000005A
:102D5000000000000000F07F180415600000F07F04
:102D6000FFFFEF7FFFFFFFFF2DE9F04F2DED048BFD
:102D7000D3B00C46059192460A9383462AF08EFE04
:102D8000036813931846FDF75BFD22AF11900822EC
:102D9000002138462AF0E4FDA3891D0603D52369E6
:102DA000002B00F04F8700239FED7F8BCDE9273369
:102DB000CDE91433CDE9163329AA0D932692904616
:102DC000129306935446A246794BD3F8E4502AF066
:102DD0005FFE0097034652461EA95846A8470028A2
:102DE00000F0AE80C0F2A4801E9A252A034601D0CE
:102DF0009A44E9E7BAEB0406054640F0A5800023B3
:102E00004FF0FF328DF86F30994607930AF1010AAF
:102E10009AF8003004920AF1010AA3F120025A2A1A
:102E200000F2C880DFE812F0E502C600C600E0024A
:102E3000C600C600C6006A00C600C60037024702C8
:102E4000C6004202F502C600F0025B005B005B00B8
:102E50005B005B005B005B005B005B00C600C600C4
:102E6000C600C600C600C600C6004701C600B601BF
:102E7000C802470147014701C600C600C600C60098
:102E8000C302C600C6007C02C600C600C600E00140
:102E9000C6004D02C600C600CE06C600C600C6006B
:102EA000C600C600C600C600C6004701C600B6017F
:102EB0001302470147014701900213027F00C60039
:102EC000B602C6009D02F10611037F00C600E001B4
:102ED0007C00CA06C600C600F406C6007C00A3F14A
:102EE000300200211AF8013B01EB810102EB4101A4
:102EF000A3F13002092AF5D907918EE758462AF046
:102F0000CDFD436816931846FDF79AFC17900546C9
:102F100058462AF0C3FD83681493002D40F0408684
:102F20009AF8003077E79AF8003049F0200972E704
:102F30000822002138462AF013FD01239A4443E772
:102F4000BAEB0406054611D0289B33442893279BEF
:102F50000133072BC8E90046279318DC08F108085D
:102F6000069B33440693002D7FF449AF289B002B2A
:102F700041F09081059B9B8903F04003002B41F0B9
:102F80005C83069853B0BDEC048BBDE8F08F0599C7
:102F900026AA58462CF054FC0028EBD10DF1A408C9
:102FA000DEE700BFAFF3008000000000000000007B
:102FB000401800200B93002BD8D000218DF8E4306E
:102FC0000123CDE908318DF86F100393049110911E
:102FD0000E910C9139AC19F0020302D0039A02321F
:102FE000039219F08405289A05D10798039E861B41
:102FF000002E00F3928081B10121C8F804102799B6
:10300000013101320DF16F00072928922791C8F88C
:10301000000000F3F68308F1080883B1279B1CA980
:1030200001330232C8F80010072B4FF0020128923A
:103030002793C8F8041000F3D88308F10808802DFE
:1030400000F0AC82049B08995E1A002E00F3E8821F
:1030500019F4807F40F00A82089BC8F804301A44B3
:10306000279BC8F800400133072B2892279300F3D1
:10307000608308F1080819F0040F05D0079B039935
:103080005C1A002C00F3CC83DDE906310398814201
:10309000ACBF5B181B180693002A40F0FC8200238B
:1030A0002793099B1BB1099958462CF035F80DF16F
:1030B000A408544687E60B930A9B073323F00703C3
:1030C000B3EC028B9FEDAE7BB0EEC86BB4EE476BFA
:1030D000F1EE10FA0A9340F31285B5EEC08BF1EED3
:1030E00010FA01F120809DF86F10A74CA74B29F032
:1030F00080090B9A472AD8BF1C4600230322099354
:1031000003920892049310930E930C9300293FF4BA
:1031100062AF039B013303935DE79D4827990F90AE
:10312000102E26DDCDE918354046994DA046059C68
:1031300004E0103E102E00F1080016DD01311032BF
:1031400010230729CDE9271205604360F1DD26AA87
:10315000214658462CF074FB002840F0A482103E13
:10316000102EDDE9271229A8E8DCDDE918354446F0
:10317000804601310F98C8F8000032440729CDE994
:103180002712C8F8046000F3B2869DF86F1008F1AA
:10319000080830E70A9A0B93432B02F1040603D088
:1031A00019F0100F00F038850822002124A82AF019
:1031B000D7FB0A9B39AC1A68214624AB58462AF043
:1031C00041FC03460133089001F03282089B23EA58
:1031D000E373039300210A968DF86F10099104910F
:1031E00010910E910C91F6E60B930A9B1A46002360
:1031F0008DF86F30134653F8044B0A93002C00F0FF
:1032000030850B9B532B00F09B8619F010030C9319
:1032100040F09686049B002BC1F236800C991A462A
:103220002046FDF73DFD0990002801F03F82099BF3
:103230001A1B0C9B0892049322EAE27210930E93DD
:10324000099373239DF86F1003920B935EE719F0B7
:10325000200F0B9300F0B7800A9B073323F007037E
:103260001A46596852F8083B0A920A460029C0F2E9
:10327000F88304990029C0F2A98253EA020129F0D7
:10328000800540F0A482049A002A40F0A582A94655
:10329000089252AC58E10A9B53F8042B0792002A7B
:1032A00080F20784079A0A93524207929AF80030F4
:1032B00049F00409AFE52B238DF86F309AF8003000
:1032C000A9E50B9349F0100515F0200200F0A68344
:1032D0000A9B073323F0070319465A6851F8083B45
:1032E0000A9101210020049C8DF86F00002CC0F28F
:1032F000148153EA020025F0800940F00D81002C72
:1033000040F00C86002940F0B38315F001030893C8
:1033100000F0D48330238DF847310DF2471413E1C8
:103320000B9349F0100919F0200200F08D830A9BDD
:10333000073323F0070319465A6851F8083B0A91EE
:1033400029F480650021CDE79AF80030682B03BF8F
:103350009AF8013049F400790AF1010A49F040096C
:1033600059E519F0200F00F0B9830A9B069A1B68F3
:103370001A60D2175A600A9B04330A93544622E516
:10338000FFFFFFFFFFFFEF7F3CA7156038A7156029
:10339000A4E415609AF800306C2B03BF9AF8013052
:1033A00049F020090AF1010A49F0100933E59AF8B9
:1033B000003049F008092EE549F0100919F0200FF6
:1033C0000B937FF449AF0A9A19F0100F52F8043B9F
:1033D0000A9240F0798319F0400F00F0718343F3B3
:1033E000C03211461BB241E79AF8003049F001099A
:1033F00011E59DF86F209AF80030002A7FF40BAD9C
:1034000020228DF86F2006E59AF8003049F08009F7
:1034100001E5504610F8013B2A2B01F0A881A3F1E9
:103420003002092A98BF002101F2948010F8013B74
:1034300001EB810102EB4101A3F13002092AF5D928
:1034400041EAE17204928246E7E40A9A52F8043BA8
:103450000A9247F63002ADF870207820984A12920E
:1034600049F00205002202210B903BE70B9B652BE4
:1034700040F36A81B5EE408BF1EE10FA40F00B821A
:10348000279B9049C8F80010013301320121072B16
:1034900028922793C8F8041000F3458508F108081E
:1034A0001D9B0D998B4280F2FF82119B13991A4448
:1034B000C8E90013279B28920133072B279300F3B9
:1034C000B58308F108080D9B5C1E002C7FF7D3AD77
:1034D000102C279B41F342817B4E0F9641461025CD
:1034E000DDF8148004E00831103C102C40F35685C0
:1034F00001331032072BC1E90065CDE92732F2DD37
:1035000026AA414658462CF09BF9002840F0CB8073
:10351000DDE9273229A9E7E74D46012900F0578167
:10352000022952AC1FD1129803F00F011B09415C14
:1035300004F8011D43EA0273120953EA0201F3D1B0
:1035400052AB1B1BA9460893049A08989DF86F106C
:1035500082424FF00003B8BF0246099303921093D2
:103560000E930C93D2E503F00701DB0843EA4273A4
:10357000D208303153EA0206204604F8011DF2D188
:10358000EB07DDD53029DBD03023023804F8013CCD
:1035900052AB1B1AA94608930446D5E7079B03992B
:1035A0005E1A002E7FF74EAD4749279B0F91102ED4
:1035B00022DD40461025A0461946434C04E0103E4B
:1035C000102E00F1080014DD013110320729C0E986
:1035D0000045CDE92712F2DD059926AA58462CF0C0
:1035E0002FF900285FD1103E102EDDE9271229A8FF
:1035F000EADC44460B46804601330F99C8F80010B8
:103600003244072BCDE92732C8F8046000F3D58493
:10361000049B08995E1A002E08F108087FF718AD80
:103620002949279B0F91102E26DD41461025B046D3
:103630002646059C06E0A8F11008B8F1100F01F12C
:10364000080116DD013320481032072BC1E90005BF
:10365000CDE92732EFDD26AA214658462CF0F0F8B6
:1036600008BBA8F11008B8F1100FDDE9273229A92D
:10367000E8DC34464646884601330F99C8F8001006
:103680003244072BCDE92732C8F8046000F3B98132
:1036900008F10808DCE4059926AA58462CF0D0F871
:1036A00000283FF4FCAC099B002B3FF463AC099964
:1036B00058462BF031FD059B9B8903F040035DE4E8
:1036C00048A71560CC34156094E41560279BBD486D
:1036D000C8F80000013301320120072B28922793FC
:1036E000C8F8040000F3248508F10808002940F018
:1036F00091840D9909F001030B433FF4BCAC119B7D
:1037000013991A44C8E90013279B28920133072B09
:10371000279300F3E58508F108080D99C8F80040E3
:1037200001330A44072BCDE92732C8F804107FF78C
:10373000A0AC059926AA58462CF082F80028B2D1F0
:10374000289A0DF1A40896E40D99279B012902F10E
:10375000010203F1010308F1080040F30B8101218C
:10376000072BCDE92732C8F80040C8F8041000F351
:1037700083811199139D01330A44072BC0E900513D
:10378000CDE9273200F3848108300D99B5EE408BE6
:10379000F1EE10FA01F1FF3500F00681013301343A
:1037A0002A44072BCDE927320460456000F3F080FE
:1037B00008301599416001330A44072B20A9CDE94F
:1037C00027320160B5DC00F1080854E44D460A2BAD
:1037D00072F1000180F02D8330338DF847310123E1
:1037E000A94608930DF24714AEE6059926AA584655
:1037F0002CF026F800287FF456AF289A0DF1A40883
:103800001DE405990F9326AA58462CF019F80028B4
:103810007FF449AF289A0F9B0DF1A408FFF7FDBB79
:10382000102C279B40F3C386674EDDF814900F964B
:10383000102504E0103C102C08F1080816DD0133B7
:103840001032072BC8E90065CDE92732F2DD26AA40
:10385000494658462BF0F4FF00287FF424AF103C73
:10386000102CDDE927320DF1A408E8DC01330F99B3
:103870002244072BC8E90014CDE927327FF704ACB6
:10388000059926AA58462BF0DBFF00287FF40BAFE2
:10389000289AFFF7F9BB1D9900297FF717AFDDE9DB
:1038A0000C639E42A8BF1E46002E0BDD279B0133F2
:1038B0003244072BC8E900462892279300F3188664
:1038C00008F108080C9D002EA8BFAD1B002D00F3C9
:1038D000D8810C9B19F4806F23441E4640F0F6817A
:1038E0001D9B0D998B42C0F2778219F0010F40F0B9
:1038F00073820D996518AD1BCC1AA542A8BF254649
:10390000002D0DDD279BC8F8006001332A44072BEA
:10391000C8F804502892279300F3058608F1080898
:10392000002DA8BF641B002C7FF7A5AB102C279B94
:1039300040F31487254E0F9641461025DDF814807C
:1039400004E00831103C102C40F32883013310327E
:10395000072BC1E90065CDE92732F2DD26AA4146F1
:1039600058462BF06DFF00287FF49DAEDDE927322D
:1039700029A9E7E719F0010F7FF4F1AE0121072B28
:10398000CDE92732C8F80040C8F804107FF711AF1E
:10399000059926AA58462BF053FF00287FF483AEE2
:1039A000DDE9273229A804E70D9901297FF701AF46
:1039B000112940F32283054EDDF814800F96102460
:1039C0000BE000BFCC341560A4E4156094E41560EE
:1039D0000830103D102D40F3128301331032072BB5
:1039E000C0E90064CDE92732F2DD26AA41465846F7
:1039F0002BF026FF00287FF456AEDDE9273229A8F8
:103A0000E7E7059926AA58462BF01AFF00287FF40D
:103A10004AAE289A0DF1A408FFF71ABB0A9915F0CF
:103A2000100051F8043B0CD115F0400404D00A9169
:103A30009BB20246012155E415F400721CBFDBB2B3
:103A400022460A9101214DE40A9919F0100051F81B
:103A5000043B41D119F040043AD09BB202460A918E
:103A60006EE45B4262EB42024D462D2001213AE4B6
:103A7000049B089352AC67E5059926AA58462BF09B
:103A8000DFFE00287FF40FAEDDE9273229A870E6BB
:103A9000059926AA58462BF0D3FE00287FF403AEE2
:103AA000DDE9273229A870E619F0010F3FF4E3AAF7
:103AB000FBE40A939AF80030FFF7ADB952AC43E546
:103AC00019F4007F40F04D83DA171146FFF7CEBBA3
:103AD00019F4007240F0CD830A9131E419F0100F0F
:103AE00040F0858219F0400F40F0C88319F4007F40
:103AF00000F07D820A9B069A1B681A703BE4B4EEC4
:103B0000488BF1EE10FA80F1DD850B9B612B00F004
:103B1000DE84412B00F01785049B013300F0EE8317
:103B20000B9B23F02003472B00F05D8500230993B6
:103B300049F480730F9318EE903A002BC0F2B484CE
:103B4000B0EE489B00260B9B413B252B00F21383D4
:103B5000DFE813F01804110311031103D9038004E3
:103B600011031103110311031103110311031103B5
:103B700011031103110311031103110311031103A5
:103B80001103110311031103110311031103110395
:103B9000110311031804110311031103D903800445
:103BA000149A9AF80030002A3FF435A91278002AB6
:103BB0003FF431A949F48069FFF72DB90B934D46C5
:103BC000FFF782BB0B93A24B129319F0200200F077
:103BD00012810A9B073323F0070319465A6851F8EC
:103BE000083B0A9119F0010F0AD053EA020107D0ED
:103BF0000B998DF87110302149F002098DF8701081
:103C000029F480650221FFF76DBB0B93FFF78BBB97
:103C10000B93904B1293D8E70A9B1B688DF8E43006
:103C200001230393089339ACFFF7D4BA059926AA68
:103C300058462BF005FE00287FF435AD289A0DF18B
:103C4000A40840E44021584629F000FB059B186079
:103C50001861002800F0CC85059A40235361FFF7D6
:103C6000A2B8049B0994062B224628BF062304947D
:103C700021460393784C089310920E920C92FFF712
:103C800045BA7649279B0F91102D40F3FA814046A3
:103C90001026A0461946714C04E00830103D102D46
:103CA00040F3EC81013110320729C0E90046CDE92B
:103CB0002712F2DD059926AA58462BF0C1FD0028EF
:103CC0007FF4F1ACDDE9271229A8E7E70D9BCDF8D9
:103CD0002CA0E31804930E9BCDF83090002B4146A6
:103CE000DDF850A0DDF84090DDF85C800F9430DD09
:103CF000B9F1000F40F30C8109F1FF392798169BA9
:103D0000013042440728C1E90038289227907FDC1F
:103D10000831049B9AF800009D1B8542A8BF054608
:103D2000002D0CDD279801302A440728C1E90065E1
:103D30002892279000F34E819AF800000831002D58
:103D4000ACBF441B0446002C14DC06440E9B002B25
:103D5000CEDCB9F1000FCFDC0F9C0D9BCDF850A04D
:103D6000E3189E428846314628BF1946DDE90BA973
:103D70000E46B5E5102C2798384B1FDD102508930B
:103D800004E0103C102C01F1080116DD0130334B2A
:103D900010320728C1E90035CDE92702F1DD059988
:103DA00026AA58462BF04CFD00287FF47CAC103C32
:103DB000102CDDE9270229A9E8DC089B0B60013003
:103DC00022440728CDE927024C6000F372839AF859
:103DD000000008310644B9E7119913980A44C8E96C
:103DE00000012799289201310729279100F38D833B
:103DF00008F108087DE50A9919F0100051F8043B14
:103E000015D119F040040ED09BB202460A91E9E6A2
:103E1000059926AA58462BF013FD00287FF443ACE1
:103E2000289A29A975E719F4007240F0A0810A9137
:103E3000D8E60021CDE90858DFF82490DDF850805D
:103E4000CDF80CA005F4806652AC8C4610E000BFA3
:103E50005CA7156048A7156070A7156094E415600D
:103E6000CDCCCCCC0A2B72F1000236D353462A4675
:103E7000991841F10001A9FB010525F0030000EBB1
:103E80009500091A581A4FF0CC3562F1000E05FB67
:103E900000F509FB0E55A0FB09A005440AF0010E30
:103EA0000520AEFB000E40184FEA5A0A303004F8E5
:103EB000010C4AEAC57A0CF1010C013C6D08002E98
:103EC000D0D098F800108C45CCD1BCF1FF0FC9D0F0
:103ED0000A2B72F1000280F0E380CDF85080DDF80B
:103EE0000CA0CDF834C0DDE90858FFF729BB0599CF
:103EF0000F9326AA58462BF0A3FC00287FF4D3ABDF
:103F00009DF86F10289A0F9B0DF1A408FFF773B866
:103F10000E9B013B0AF1FF3A0E93EFE601294D4655
:103F20007FF4FEAA58E4059926AA58462BF088FC8F
:103F300000287FF4B8AB289A0DF1A408FFF7B0BAB7
:103F400024AD0822002128461F9429F009FD049B76
:103F5000002BC0F2B4800026CDF80CA0CDF8249040
:103F60009A46B1460EE039A9584629F06BFD421C2D
:103F7000484400F07183504509DC06F1040600F066
:103F80008B8381461F9A92592B46002AEBD1CDF89C
:103F90002090DDF80CA0DDF824909DE088460133E8
:103FA0000F99C8F800102244072BC8F80440CDE947
:103FB00027327FF75EA8FFF7BCBB059926AA5846B3
:103FC0002BF03EFC00287FF46EAB289A0DF1A4087C
:103FD000FFF738B8059926AA58462BF031FC00287F
:103FE0007FF461AB9AF80000289A29A9A7E60A9BFA
:103FF000069A1B681A60FFF7BEB9B7490F910133E3
:104000000F9901602A44072BCDE9273245607FF7DD
:10401000CFABBDE4119B13981A44C8E90003279B5A
:1040200028920133072B279300F35A8108F10808DF
:104030000029BFF672AB4D42103180F2D683A648FC
:104040000F9041461026804604E00831103D102DA7
:1040500040F3D38201331032072BC1E90086CDE94A
:104060002732F2DD059926AA58462BF0E9FB0028F5
:104070007FF419ABDDE9273229A9E7E744460B466F
:10408000804601330F99C8F800102A44072BCDE968
:104090002732C8F8045000F3128108F1080818E428
:1040A000179B1699E41A1A46204627F011F998F83A
:1040B00001300BB108F101084FF0000CD6E60023E7
:1040C000194600951FAA58462AF054FB03460133AF
:1040D000089000F0C1821F94089B002B36D0632B00
:1040E00000F3E3800023099339AC0822002128461D
:1040F00029F036FC0095089D1FAA2B4621465846FC
:104100002AF038FB854240F06A83089A0023A354C2
:1041100022EAE2729DF86F100493039210930E93BB
:104120000C93FEF7F3BF2D218DF86F10FEF7DDBF66
:10413000059926AA58462BF083FB00287FF4B3AAE2
:104140001D99289A0DF1A408FFF7D0BA089B9DF895
:104150006F101093CDE903330E930C930993FEF780
:10416000D5BF43F3C01211465BB2FFF77FB8DBB295
:1041700022460A9136E524AB01931FAB0093049AC3
:10418000B0EE490B1DAB0221584600F03DFB19F083
:10419000010F044640F0D981249B1B1A0D931D9BEF
:1041A0000C930C9BD91C03DB049A9A4280F25C812D
:1041B0000B9B023B0B930C9B013B9DF82C201D930A
:1041C0000021002BB8BF0C9B8DF88020BABFC3F133
:1041D00001032D222B22092B8DF8812040F3F5813C
:1041E0000DF19705DFF8F4C02A461046ACFB031228
:1041F000D20802EB8201A3EB4101303100F8011C2F
:1042000019466329134600F1FF32EEDC303302F821
:10421000013C831EAB4280F0B6820DF1810213F89F
:10422000011B02F8011FAB42F9D152AB181AA0F1E1
:10423000AD0315930D9B159A012B1A44089240F378
:104240001682089B119A13440893089A29F48063F4
:1042500043F4807922EAE2720023109303920E93D2
:104260000C93002E40F0F9809DF86F100496FEF735
:104270004DBFDBB222460A91FFF762B80A9B069A4D
:104280001B681A80FFF777B82046FCF7D9FA024678
:10429000FEF7CFBF059C26AA214658462BF0D0FA40
:1042A000A38903F04003FEF769BE591C584628F065
:1042B000CDFF0446002800F08B82099015E7059990
:1042C00026AA58462BF0BCFA00287FF4ECA9289ABD
:1042D0000DF1A408FFF7FDBA94E41560CDCCCCCC69
:1042E000059926AA58462BF0ABFA00287FF4DBA9E3
:1042F000DDE927321D990DF1A40899E60023099301
:104300000623049314E4049B02215D1C24AB019357
:104310001FAB00932A461DAB5846B0EE490B00F088
:1043200073FA0B9B23F0200CBCF1460F044600EB04
:10433000050118BF4FF0450C05D12378302B00F054
:104340000E811D9B1944B5EE409BF1EE10FA00F072
:104350002A81249B8B4206D230205A1C249218704A
:10436000249B9942F9D81D9A0C921B1BBCF1470F54
:104370000D933FF416AFBCF1460F00F0FB800C9B91
:10438000013B1AE71DA8B0EE490B01F0C1F8B4EEED
:10439000007BB3EE004B20EE077BB5EE407BF1EEE9
:1043A00010FA08BF0123B44A08BF1D93B348049B09
:1043B0000B99013B612908BF1046224606E0B5EE85
:1043C000407BF1EE10FA00F08F810B4627EE047B64
:1043D000FDEEC76B154616EE901A415C02F8011B04
:1043E000591CB8EEE65B03F1FF3137EE457BE6D1B1
:1043F000B6EE005BB4EEC57BF1EE10FA40F3C68179
:10440000249512F8011CC57B8D4213460AD14FF04A
:10441000300C03F801CC249B591E249113F8011C85
:104420008D42F6D0392916BF0131817AC9B203F81D
:10443000011C13461B1B0B9A0D931D9B0C93612AA9
:1044400003F1FF331D9300F09081412150220B9125
:104450000121B6E6049D032158E72D2100238DF8A4
:104460006F100493FEF755BEDDE90C23934200F371
:10447000A28019F0010F0C9B00F03481119A1344B3
:10448000089319F4806F03D00C9B002B00F3378145
:10449000089B23EAE373039367230B930023DDF860
:1044A0003C9010930E93DCE62D26B1EE489BFFF76F
:1044B0004ABB059926AA58462BF0C2F900287FF47A
:1044C000F2A89AF80000289A29A906443EE4782325
:1044D0008DF8713030238DF87030049B632B49F0D8
:1044E000020900F3AF800023099339ACFFF720BB2A
:1044F000059926AA58462BF0A3F900287FF4D3A8E3
:10450000289A0DF1A408FFF7DDB9059926AA5846A7
:104510002BF096F900287FF4C6A81D9B289A0DF170
:10452000A408FFF7E6B9059926AA58462BF088F9A2
:1045300000287FF4B8A81D9C0D9B289A1C1B0DF128
:10454000A408FFF7EDB95823C2E7049B4FF0470CCE
:10455000C118F8E6002282460492FEF75EBCB5EE72
:10456000409BF1EE10FA40F0FC801D9B0C93194427
:104570000B1B0D930C99049A09F00103002943EADF
:10458000020340F30F81002B40F0E1800C9B089365
:1045900066230B9319F4806F40F0B380089B23EAE5
:1045A000E37303937AE71D9A0C920B46DDE63449D8
:1045B0000F91FFF75BB90D9B119A9A180C9B08920B
:1045C000002B5FDD67230B93E4E700296BD13022DA
:1045D0008DF882200DF18302303302F8013B20ABCD
:1045E000D31A159326E6049B002B7FF49FAA049B05
:1045F000099301230493FFF79BBA884601330F996F
:10460000C8F800102A44072BCDE92732C8F8045017
:104610007FF781A8059926AA58462BF011F90028A2
:104620007FF441A8DDE927320DF1A408FFF775B842
:10463000059A938943F0400393814FF0FF3306932B
:10464000FEF79FBC591C584628F000FE044600287F
:10465000EED00990FFF76CBA059BB3F90C3000223D
:10466000099243F04003059A9381FFF71CB819F0B3
:10467000010F3FF4EAADE4E548A715605CA71560BB
:10468000A4E41560C3F101031A4422EAE273039320
:10469000672308920B9301E7049BDDF80CA0DDF87B
:1046A0002490089318E50DF1820295E7049B03938B
:1046B000089373239DF86F10049010900E900B9345
:1046C000FEF724BD18EE903A002BB4BF2D219DF8C3
:1046D0006F10494C494BB8BF8DF86F1029F0800915
:1046E000FEF707BD0893CCE6002BFFF6A2AE013320
:1046F0001344302102F8011B9A42FBD19AE667234A
:104700000B9314990B78FF2B5ED000250C9A28464A
:1047100003E001300131FF2B08D0934206DAD21AB0
:104720004B78002BF5D10B780135F4E714910C92FE
:104730000E901095DDE90E39109A17991344089AD6
:1047400001FB0323089323EAE373039389E5119B99
:104750001A445318089366230B931BE728490F91BB
:104760001DE4C5F101031D93ECE5702270E60A9A81
:104770009AF8013052F8041B0A9241EAE17182462C
:104780000491FEF748BB0223159353E5B4EE457B35
:10479000F1EE10FA7FF44DAE16EE903ADB077FF59E
:1047A00048AE2DE62BB90123662203930B920893A2
:1047B00074E6119B5D1C049B2B44089323EAE3736E
:1047C000039366230B9369E6002310930E93B1E7DE
:1047D000059B0990B3F90C3043F0400343E7059B78
:1047E000B3F90C3043F040033DE705490F9105E76D
:1047F0000C23CBF8003020E744A7156040A71560D4
:1048000094E41560FFFFFFFF2DE9F04F2DED028BC3
:1048100091B08DED040B0291816B1C9D069357ECBA
:10482000106B0446914641B1C26B4A60012393402C
:104830008B6029F0DDF90023A363B7F10008B4BF52
:10484000012300232B60C04BBCBF28F00048CDF8EB
:10485000148033EA080300F0A0809DED048BB5EED0
:10486000408BF1EE10FA0FD1069A012313601D9BC5
:1048700013B11D9AB54B1360B54B0393039811B058
:10488000BDEC028BBDE8F08F0FA90EAA2046B0EE5A
:10489000480B29F0D7FD5FEA1851054640F0958096
:1048A000DDE90E01014401F23243202B40F307837E
:1048B000C3F1400308FA03F801F2124326FA03F3A6
:1048C00048EA030307EE103AB8EE477B012317EEE0
:1048D000906A0193013953EC172BA6F1F8739FED01
:1048E000943B9FED957B9FED965B06EE901A43EC13
:1048F000122BB8EEE64BB7EE086B32EE466BA6EE27
:10490000037BA4EE057BFDEEC76BB5EEC07BF1EE3D
:1049100010FA16EE906A08D5B8EEE66BB4EE476B67
:10492000F1EE10FA18BF06F1FF36401A162E00F10C
:10493000FF3800F24981874B03EBC60393ED007B00
:10494000B4EEC78BF1EE10FA56D50023B8F1000F84
:1049500006F1FF360B93C0F23D8100230793002E32
:1049600050DA079B09969B1B0793029B092BC6F104
:10497000000A4FF000064CD8052B40F39E82043B02
:1049800002930027029B023B032B00F28D85DFE898
:1049900013F0F903F603EC03CF03069AC8F31308E8
:1049A00042F20F7358EA060813601ED11D9B002BBC
:1049B00000F07685684B039308331D9A03981360C3
:1049C00011B0BDEC028BBDE8F08F18EE906A0023A9
:1049D000C6F31306019353EC182B46F07F530E9841
:1049E000A1F2FF3143F4401379E71D9B002B40F007
:1049F0007D835A4B039341E7002840F33F84002313
:104A00000B930793029B0996092BB0444FF0000AC1
:104A1000B2D900230127029308974FF0FF3B994634
:104A20000021E163CDF830B0204629F0BBF80390B7
:104A3000002800F04185039BA363BBF10E0F00F239
:104A4000F080002F00F0ED800999002940F3F183F8
:104A5000404B01F00F0203EBC203CF0593ED007B47
:104A60004FEA211340F1B6833D4A92ED086B03F003
:104A70000F03032188EE064B5BB1394AD80704D5F2
:104A800092ED006B013127EE067B5B1002F108020C
:104A9000F4D184EE075B0B9B3BB1B7EE007BB4EE29
:104AA000C75BF1EE10FA00F18F8407EE901AB8EEB2
:104AB000E76BB1EE0C7BA5EE067B17EE903A51EC5E
:104AC000170BA3F15071BBF1000F00F09780DDF8D8
:104AD00024C05B46DFF87CE0039AFDEEC56B41EC39
:104AE000140B0EEBC30111ED023B16EE901A089861
:104AF00030310132B8EEE67BCFB235EE477B11465E
:104B0000002800F01784B6EE006B86EE035B039975
:104B100035EE445BB4EEC75BF1EE10FA0F7000F3B4
:104B20004784B7EE002BB2EE044B002032E000BF0A
:104B300061436F63A787D23FB3C8608B288AC63FA3
:104B4000FB799F501344D33F0000F07FCD341560B4
:104B5000CC3415604004156020A815602CA81560A1
:104B600018041560013098425BDA27EE047B25EECD
:104B7000045BFDEEC76B16EE901AB8EEE63B3031E3
:104B800037EE437BB4EEC57BF1EE10FA02F8011B61
:104B900000F10E8432EE476BB4EEC56BF1EE10FA05
:104BA000E0D5039813460CF1010C02E0834200F0BB
:104BB00030841A4613F8011D3929F7D00131C9B2E2
:104BC0001970CDF808C044E10123B8F1000F0B9330
:104BD000BFF6C3AEC0F1010307934FF00008BEE675
:104BE00007EE901AB1EE0C6BB8EEE77BA5EE076B03
:104BF00016EE903A51EC160BA3F1507141EC160BE6
:104C0000B1EE047B35EE477BB4EEC67BF1EE10FAD5
:104C100000F30F84B1EE466BB4EEC67BF1EE10FAF2
:104C20001CD40F9B002B58DB099A0E2A55DCA74B8E
:104C3000099AB9F1000F03EBC20393ED003B14DABC
:104C4000BBF1000F11DC09D1B1EE047B23EE077B31
:104C5000B4EEC78BF1EE10FA00F2EB830023039A57
:104C600001931F466FEA090901E2039B591C88EE74
:104C7000037BBDEEC77B0B4617EE102A039930323B
:104C8000BBF1010FB8EEC76B0A70A6EE438B00F0C4
:104C90000083B2EE045BB1EE434B012211E088EEDB
:104CA000037BBDEEC77B013217EE101A5A4501F1A6
:104CB0003001B8EEC76B03F8011BA6EE048B00F0C1
:104CC000E88228EE058BB5EE408BF1EE10FAE6D1C6
:104CD000099A013202921A46BBE0089A002A40F073
:104CE000D780079BCDF804A0002708970A930A9A5B
:104CF0006AB1B8F1000F0ADD424507991346A8BF13
:104D00004346C91AD21A07910A92A8EB0308BAF1CE
:104D1000000F0BD0089B1BB1019B002B40F0EE82D3
:104D200029465246204629F04DF9054601212046E4
:104D300029F064F80190002E40F0A681029B012B1F
:104D400040F3D8810120404410F01F0000F097800C
:104D5000C0F12003042B40F3E681079BC0F11C0047
:104D6000034407930A9B03440A938044079B002B48
:104D700005DD29461A46204629F07EF90546B8F198
:104D8000000F05DD01994246204629F075F9019092
:104D90000B9B002B40F08D81BBF1000F40F34A814B
:104DA000089B002B40F0A280099B01330293DDF8A1
:104DB0000C80DDF80490012607E0294600230A2232
:104DC000204628F01FFF013605464946284629F0AF
:104DD000DDFCB34500F1300A08F801ABEDDCBBF1B6
:104DE000000F039BCCBFD8464FF001089844002623
:104DF00029460122204629F03FF90199054629F06C
:104E0000B3F9002840F3F581039902E0884500F0EA
:104E10000982424608F1FF3812F8013C392BF5D0DF
:104E2000013388F8003001990492204628F0E0FE12
:104E3000049A77B13EB1BE4205D031462046019278
:104E400028F0D6FE019A01923946204628F0D0FE7D
:104E5000019A01922946204628F0CAFE019A029939
:104E600000231370069B19601D9B002B3FF406ADB9
:104E700003981A6011B0BDEC028BBDE8F08F1C23C3
:104E8000079A1A4407920A9A1A440A9298446DE7BC
:104E9000029A012A40F3B8810BF1FF329245C0F229
:104EA0007B81AAEB0203BBF1000F019380F2C78262
:104EB000079BA3EB0B030A9379E1012762E5C3F19A
:104EC000200306FA03F307EE103AFDE440041560F0
:104ED000394600230A22204628F094FE0C9B002B22
:104EE000074640F3CC82CDF824809B460A9B002BDA
:104EF00000F34B81002E40F0E481B946039E731EFF
:104F00005B440A93049B03F001030B930199284629
:104F100029F03CFC39468346284629F025F90199B9
:104F200080464A46204629F041F9C3680BF1300A11
:104F30000146002B36D10890284629F015F908992A
:104F40000790204628F054FE079A002A5AD1029B67
:104F50001BB90B9B002B00F07D82B8F1000F42DBE8
:104F60000A9BB0469E4208F801AB00F0C181294679
:104F700000230A22204628F045FE4F4505463946C3
:104F80004FF000034FF00A02204635D028F03AFED9
:104F90004946074600230A22204628F033FE4646AB
:104FA0008146B3E7204628F023FEB8F1000F08DB66
:104FB000049B03F00102029B48EA030852EA08023C
:104FC0002ED129460122204629F056F8019905469E
:104FD00029F0CAF8002840F30181BAF1390F00F036
:104FE0001D820BF1310A324602F801AB099B0133F5
:104FF0003E4602934F4616E728F004FE4646074613
:10500000814683E7B8F1000FC0F25D82029B48EA57
:1050100003080B9B53EA080800F05582002A9FDD25
:10502000BAF1390F00F0FA8132460AF1010302F8B1
:10503000013BDBE7029B022B7FF7B2AEBBF1000F17
:1050400040F0258101995B460522204628F0DAFDD3
:1050500001460190284629F087F8002840F317817F
:10506000099B039A03F10109312302F8013B0199DD
:105070000492204628F0BCFD09F10103049A029332
:10508000002F7FF4E0AEE4E601463246204628F0E9
:1050900099FF029B0190012B40F38F800026019A1B
:1050A000136902EB8303186928F056FEC0F1200053
:1050B00049E60199284629F057F80028BFF66CAE5A
:1050C000294600230A222046099D28F09BFD089BC3
:1050D00005F1FF380546002B7FF4FAAE0C9B002B40
:1050E00040F3C081099A02929B4660E6B24B03935B
:1050F000033362E4049B002B7FF424AEDDE9041249
:10510000C2F31303002B7FF41DAEAC4B13402BB145
:10511000079B0133079308F101080123002E40F09B
:105120008C811E460EE63FF421AEC0F13C03A7E69B
:1051300001230893099B4B4403F1010BBBF1010FC1
:10514000DC460C93B8BF4FF0010CBCF1170F40F3D5
:10515000A381012204235B0003F114006045114682
:1051600002F10102F7D9E1635EE401230893B9F18A
:10517000000F3ADDCDF83090CB46CC46E5E7002372
:105180000893D7E700230893F1E739461A462046EB
:1051900028F072FF0746ADE6A2EB0A031E44079B08
:1051A0000A935B4407930023D8449246019301215C
:1051B000204628F023FE074699E5049B002B7FF448
:1051C0006DAFDDE90401C1F313030A46002B7FF440
:1051D00065AF9AE70221B0EE484B4DE47FF403AF90
:1051E0001AF0010F7FF4F9AEFDE64FF00109CB464E
:1051F00016E403D11AF0010F7FF406AE424618F808
:10520000013D302BFAD00EE6019A002A00F08E8084
:1052100003F23343079A0A929844D3180793CDF8C0
:1052200004A0C4E7029B03990133029331230B705E
:10523000F9E500F0E980099B614A5B4203F00F0148
:1052400002EBC10292ED006B1B1128EE066BB0EE73
:10525000465B00F01E815B4A00200221DF0705D576
:1052600092ED007B0131012025EE075B5B1002F11E
:105270000802F3D1002806FE055B0CE4C0F101032F
:105280004FF000080793CDF82C80FFF7BBBB039AC3
:10529000E8E4099A38EE088B0132B4EEC83BF1EE2F
:1052A00010FA0292944608D4B4EE483BF1EE10FA9C
:1052B00005D117EE102AD20701D5039879E41A46D2
:1052C000C7E57968204628F06DFC0646002800F006
:1052D000FE803B6902339A0007F10C010C3029F083
:1052E000CBFB31460122204628F0C6FE814605E66A
:1052F000099B01333E4602934F4679E51A463946EB
:10530000204628F05FFE2A4601460746204628F040
:10531000A3FD29460D90204628F06AFC019BBAEBBC
:10532000030A0D9B1D463FF401ADF9E40E9BC3F14A
:1053300036036FE7039824EE033B012B077000F060
:10534000A680B2EE044B0398034427EE047BFDEEE7
:10535000C76B16EE907A303702F8017B9A42B8EEAE
:10536000E65B37EE457BF0D1B6EE006B33EE065BC5
:10537000B4EEC57BF1EE10FA67DC36EE436BB4EEAB
:10538000C67BF1EE10FA0DD40F9B002BFFF6A9ACF3
:10539000099B0E2B3FF7A5AC099B0EEBC30090EDCC
:1053A000003B64E41A46013B12F8011C3029F9D095
:1053B0000CF1010302934CE52CA815600000F07F6E
:1053C0004004156018041560BBF1000F3FF408ACF1
:1053D0000C9B002B7FF725ACB2EE044B25EE045B53
:1053E000013107EE901A0999B8EEE76BB1EE0C7B2C
:1053F000A5EE067B17EE902A01F1FF3C51EC170B4E
:10540000A2F15071FFF766BB0221B0EE485BFFF7D7
:1054100042BB0CF1010C3121FFF7D2BB099B039970
:10542000B0460133029339233E4608F8013B4F460C
:10543000EFE4002301931F4612E61E462FE6079B6A
:105440000A935B44D8440793B1E603980CF1010C2E
:10545000FFF7AFBBBAF1390FE0D0B8F1000F3FF75B
:10546000C0ADC0E5029B022B04DC099BDDF830B027
:1054700002939CE4DDF830B0CDF82480DEE5029B99
:10548000022BF7DCDDF830B0CDF824802EE5134692
:105490006AE70221FFF7FFBA0021E163FFF7C4BA10
:1054A000144B0393FFF7EAB90027E7633946204618
:1054B00028F078FB039088B90F4B1048002240F287
:1054C000AF1101F079FA002A3FF77BAD8BE50A4B6B
:1054D0000A48324640F2EF2101F06EFA039BA363C3
:1054E00001224FF0FF33B9460C9308929B46FFF719
:1054F00098BB00BF20A81560C0A6156030A8156035
:105500009FED010B704700BF000000000000F87F16
:1055100030B482B08DED000B019A194C22F000439B
:105520000021A34201601FD8009C1C431CD0154CD5
:10553000144054B99FED107B20EE077B8DED007B6E
:10554000019A6FF0350122F00043DDE900456FF369
:105550001E5242F07F551B1545F40015A3F2FE3391
:10556000CDE900450B4403609DED000B02B030BC5B
:10557000704700BFAFF30080000000000000504300
:10558000FFFFEF7F0000F07F08B52DED048BB0EE3C
:10559000408B2AF041FFB4EE488BF1EE10FA06D6AC
:1055A0009FED099BB4EEC98BF1EE10FA02D4BDEC6D
:1055B000048B08BD26F0BEF989EE090BBDEC048B07
:1055C0002123036008BD00BF0000000000000000B0
:1055D000B0EE407B17EE903A1B4A23F00043934213
:1055E0001AD91A4A934202D930EE400B704700B5DF
:1055F00085B0684600F008FC00F0030001289DED2E
:10560000021B9DED000B10D0022809D090B900F0CC
:105610001FF805B05DF804FB9FED091B00F018B8FA
:1056200000F016F8B1EE400BF3E700F0A9F8B1EE88
:10563000400BEEE7012000F0A3F8EAE7AFF30080AB
:105640000000000000000000FB21E93FFFFFEF7FAA
:1056500010EE903A23F00043B3F1795F2DED028B09
:105660002ED2FDEEC07B17EE903A002B65D020EED7
:10567000004B9FED358B9FED362B9FED373BA4EE16
:10568000082B9FED375BA4EE023B9FED376BA4EE3A
:10569000035B9FED377BA4EE056BA4EE067B24EE47
:1056A000077B21EE401BB6EE006BA4EE071BB7EEA6
:1056B000000B94EE061BBDEC028B30EE410B7047E5
:1056C0009FED218B20EE004B9FED212B9FED223B88
:1056D000A4EE082B9FED225BA2EE043B9FED226B14
:1056E000A3EE045B9FED227BA5EE046B224AA6EE9F
:1056F000047B934227EE047BD3D9204A934217D8E8
:10570000B7EE006B0020A3F5001141EC150B36EE4F
:10571000456B21EE401BB6EE003BA4EE071B94EE5A
:10572000035BBDEC028B35EE415B36EE450B7047FB
:10573000B6EE076BB5EE025BEBE7B7EE000BBDEC28
:10574000028B7047AFF30080D43888BEE9FAA8BD59
:10575000C4B1B4BD9EEE213EAD529C804F7E92BE40
:105760009015CB19A001FA3E7751C1166CC156BFF6
:105770004C5555555555A53F3233D33F0000E93FB1
:1057800010EE903A23F00043B3F1795F04D2FDEEBE
:10579000C07B17EE903A5BB320EE007B9FED162B9B
:1057A0009FED173B9FED184BA7EE023B9FED185B5B
:1057B000A3EE074B9FED186BA4EE075BA5EE076BFE
:1057C00020EE075B30B99FED164BA7EE064BA4EE1B
:1057D000050B70479FED144B26EE456BB6EE003B74
:1057E000A1EE036B96EE071BA5EE041B30EE410BFA
:1057F000704700BFAFF300807CD5CF5A3AD9E53D62
:10580000EB9C2B8AE6E55ABE7DFEB157E31DC73EF1
:10581000D561C119A0012ABFA6F810111111813F4D
:10582000495555555555C5BF495555555555C53F0C
:105830002DE9F04F55EC104B2DED0A8B2F0D11EE8D
:1058400090CA07F1FF3E40F2FD70864511EE103A16
:1058500089B02A4621464FEA1C5600F2C780C6F39B
:105860000A0EAEF2BE307F2898BF002000F22F81D2
:10587000BFEE000BD24CD34B1444C4F3463503EBBC
:10588000451693ED006B93ED027B251596ED189B65
:1058900096ED162B05EE105A6FF3130496ED128B4E
:1058A00093ED0C4BB8EEC55B93ED04ABA5EE062B68
:1058B000A5EE079B93ED08BB93ED105B93ED067B84
:1058C00093ED0A6B93ED0E3B0E1E171B47EC1C6B02
:1058D000ACEE080BA0EE053BA0EE046B20EE0A5BDD
:1058E00030EE024B20EE058BA0EE0B7BA8EE036B97
:1058F00032EE442BA8EE067B32EE002BB0EE483B96
:1059000039EE022B90EE053B34EE085B20EE080BDF
:1059100034EE454B32EE036B34EE084B36EE046B3F
:10592000A0EE076B35EE064B21EE048B18EE902AA5
:10593000B0EE487BC2F30A556FF47273EB183E2B3E
:1059400091EE047B35EE445B35EE065BA1EE057B04
:1059500000F2EE809C4B93ED024B93ED005BB0EEBA
:10596000441B93ED042BA8EE051B93ED066B11EE83
:10597000101A31EE441B01F07F0293ED0E4BA1EEA5
:10598000028BA1EE068B93ED0C6B37EE087B27EEB6
:10599000072B921802F10F0403EBC202A7EE046B6F
:1059A00092ED1C4B03EBC40293ED0A3B93ED085BB5
:1059B00053F834605768A7EE035B4018002422EECA
:1059C000023B37EE047BA219A2EE057B07EB4033C6
:1059D000A3EE067B002D00F0BA8043EC102BA7EE5F
:1059E000000B09B0BDEC0A8BBDE8F08FD8184CEB6A
:1059F0000C0A6FF0010910F1FF3B4AF1FF3E6FF412
:105A00000018D94578EB0E0EC0F0588114EB040E47
:105A100045EB050A1EF1FF3B6AF10000D94578EB22
:105A20000000C0F02381002DC6F30A0E80F28381AE
:105A300040F2FE30864540F3F98040F2334086451F
:105A400000F38081A0EB0E000090203801900098B8
:105A50004FF0FF3909FA00F8C0F1200A019809FA5D
:105A600000FB009848EA0B0829FA0AFB48EA0B08F1
:105A700009FA00F923EA09092CEA080859EA080892
:105A800040F0D480C34001980CFA0AFA2CFA00F0D6
:105A900043EA0A03034303F001039804AEF2BE3362
:105AA0007F2B22F0004222D8C7F30A07002F7FF491
:105AB000DFAE9FED3F7B45EC164B26EE077B55ECAA
:105AC000174B25F000422146A2F15072D0E6D818BB
:105AD0004CEB0C086FF0010B10F1FF3A48F1FF3965
:105AE0006FF40017D34577EB0907C0F00C81374BF3
:105AF0009A4208BF002900F0B68040F2BD339E45AF
:105B0000324B48D9012972EB030334BF0123002330
:105B1000B6F5006F2CBF00260126B3424FF00000FF
:105B20000ED109B0BDEC0A8BBDE8F04F00F0BCBA55
:105B3000002BC0F28480B5F5816F2AD9002AF0DBF2
:105B400009B0BDEC0A8BBDE8F04F00F0B5BAA14238
:105B500080F2A080B7EE003B03F17F5101F5001108
:105B6000104641EC150B27EE057B35EE076BB0EECA
:105B7000C64BB4EEC34BF1EE10FA29D49FED0E0BD9
:105B800026EE000B09B0BDEC0A8BBDE8F04F2AF001
:105B900077BC0025DEE6002088429341B7EE000B7B
:105BA00034BF31EE000B30EE410B1AE7AFF300804B
:105BB0000000000000003043000000000000100062
:105BC000AB6A19C008051560501515600000F03F5C
:105BD000B5EEC06BF1EE10FA35EE465BBFEE004B52
:105BE00035EE075B58BFB0EE434B36EE043B34EE68
:105BF000437B37EE067B37EE057B37EE037B37EED4
:105C0000446BB5EE406BF1EE10FA04D12A4601F078
:105C1000004343EC162B9FED725B8DED045B9DED15
:105C2000047B27EE057B8DED067BA7E745EC104B4B
:105C300009B0BDEC0A8BBDE8F04F2AF011BCB7EEFD
:105C4000000B38EE000B00283FF4CBAEB1EE400B5A
:105C5000C7E64918684B82F400224FF00000524119
:105C60008842934162D3B7EE000BBAE6002D20EED6
:105C7000000B69DB00205EEA0A0A40F09180BCF16B
:105C8000000FBFF6AEAE09B0BDEC0A8BBDE8F04F19
:105C900000F01ABA03F140419FED536B01F570011A
:105CA000104641EC100BA7EE000B20EE060B09B0DE
:105CB000BDEC0A8BBDE8F04F00F01EBA50EA0A03B3
:105CC000C7D021194D4F4FF0000645EB05038E421A
:105CD00077EB030E1A4629D3BA4508BFB04225D147
:105CE0004748834208BFB142BDD0454B6FEA0C0C18
:105CF0009A424FEADC7C34BF00220122624569D01F
:105D00009FED3B0B6DE650EA0806A2D03D4F002602
:105D1000BD4208BFB44250D1DB188CF4002C364B86
:105D20004CEB0C0C864273EB0C039CD245EC174BEE
:105D300037EE010B55E6AEF2BE337F2B3FF6DDAEFC
:105D40000020B3E60020A9E6C6F30A02A2F2FF3162
:105D500034298FD8C2F586624FF0FF31A2F11D04BD
:105D6000033201FA04F601FA02F0C2F120053043D1
:105D700021FA05F63043914023EA01012CEA0000A4
:105D800001437FF477AF23FA02F20CFA05F52A43B8
:105D90002CFA04F4224312F0010217D110466AE7EC
:105DA000BCF1000FBFF61DAEB7EE006B86EE007BB8
:105DB0008DED027B9DED020B13E618F5001F08BF69
:105DC000B042B3D1491845EB02028EE70120B1EE93
:105DD000400B50E721EE010B03E600BFAFF300805C
:105DE0000000000000001000000000000000007F24
:105DF00000000000000000000000F0FF0000E0FFD5
:105E00000000E07F0000F03F70B553EC102B9E497E
:105E100023F000458D4288B0044669D99B498D42E4
:105E20001E461BD8002B9FED887B40F3E98030EEA7
:105E3000477BA1F51B21A1F5F0618D4267D09FED55
:105E4000845B37EE456B37EE467B37EE457B84ED62
:105E5000006B84ED027B012008B070BD8C498D423F
:105E600062D98C498D424BD810462A15A2F21642AF
:105E7000A5EB025141EC170B9FED774BBDEEC75BD5
:105E800008A8B8EEC55B37EE457B27EE047BBDEE78
:105E9000C76B8DED025BB8EEC66B37EE467B8DEDC2
:105EA000046B27EE047B8DED067B032130ED027B36
:105EB000B5EE407BF1EE10FA0B4601F1FF31F5D063
:105EC000754901910221009102A8214600F028F9AC
:105ED000002EC1DA94ED006B94ED027BB1EE466BBF
